:020000040800F2
:10000000003000206D2C00089D0300089F030008AD
:10001000A1030008A3030008A503000800000000D6
:10002000000000000000000000000000A1290008FE
:10003000A703000800000000412A0008A9030008E7
:10004000BD2C0008BD2C0008BD2C0008BD2C0008EC
:10005000BD2C0008BD2C0008BD2C0008BD2C0008DC
:10006000BD2C0008BD2C0008BD2C0008BD2C0008CC
:10007000BD2C0008BD2C0008BD2C0008BD2C0008BC
:10008000BD2C0008BD2C0008BD2C0008BD2C0008AC
:10009000BD2C0008BD2C0008BD2C0008BD2C00089C
:1000A000BD2C0008BD2C0008BD2C0008BD2C00088C
:1000B000BD2C0008BD2C000800000000BD2C00086D
:1000C000BD2C00080000000000000000BD2C00084E
:1000D00000000000BD2C0008BD2C0008BD2C00084D
:1000E000BD2C0008BD2C000800000000000000002E
:1000F0000000000000000000000000000000000000
:1001000000000000000000000000000000000000EF
:100110000000000000000000BD2C0008BD2C0008FD
:1001200000000000000000000000000000000000CF
:1001300000000000000000000000000000000000BF
:10014000BD2C0008BD2C00080000000000000000CD
:10015000000000000000000000000000000000009F
:10016000000000000000000000000000000000008F
:10017000000000000000000000000000000000007F
:0801800000000000BD2C000886
:1001900010B5054C237833B9044B13B10448AFF3C1
:1001A00000800123237010BD10000020000000001B
:1001B000342D000808B5034B1BB103490348AFF3C6
:1001C000008008BD0000000014000020342D00084D
:1001D00008B509E0012211464FF0904000F055FEAD
:1001E0004FF4FA7001F0CAFD1021084800F046FEF5
:1001F0000028EFD0002201214FF0904000F045FE92
:100200004FF4FA7001F0BAFDEEE700BF00040048B9
:1002100008B509E0012202214FF0904000F035FEC0
:100220004FF4FA7001F0AAFD2021084800F026FEE4
:100230000028EFD0002202214FF0904000F025FE70
:100240004FF4FA7001F09AFDEEE700BF0004004899
:1002500008B508214FF0904000F01CFE4FF47A7072
:1002600001F08CFDF5E772B6FEE700B591B02822EB
:10027000002106A802F056FD002301930293039388
:10028000049305930223069301230A9310230B93EF
:1002900006A800F0FFF868B90F230193002102912E
:1002A00003910491059101A800F046FC20B911B01A
:1002B0005DF804FBFFF7D7FFFFF7D5FF00B583B06C
:1002C00000F0C4F8FFF7D1FF00F02EF800240194ED
:1002D00001250095234664220D490E4801F0B6FB26
:1002E00001940095234664220B490C4801F0AEFBB3
:1002F000019400952346642209490A4801F0A6FBAF
:1003000002F0EAF800F03EFE02F008F9FEE700BF56
:100310004C2D0008D1010008582D000811020008DA
:10032000642D00085102000810B588B00024039421
:100330000494059406940794164B5A6942F40032CB
:100340005A615A6902F400320192019A5A6942F4E0
:1003500080225A615B6903F480230293029B224648
:100360000B214FF0904000F090FD0B2303930123ED
:1003700004930594069403A94FF0904000F0B0FC5C
:10038000302303930494059403A9034800F0A8FCC8
:1003900008B010BD0010024000040048FEE7FEE770
:1003A000FEE7FEE7FEE7704708B500F061F801F0F0
:1003B00023FE012800D108BD02F074FBFBE700001A
:1003C00000B583B00D4B9A6942F001029A619A69B7
:1003D00002F001020092009ADA6942F08052DA617A
:1003E000DB6903F080530193019B00220F216FF022
:1003F000010000F06BFD03B05DF804FB001002404B
:1004000010B504460E4B18784FF47A73B3FBF0F333
:100410000C4A1068B0FBF3F000F090FD68B90F2CA7
:1004200001D901200AE0002221464FF0FF3000F000
:100430004DFD054B1C60002000E0012010BD00BFF9
:1004400000000020080000200400002008B5074A32
:10045000136843F010031360032000F025FD0F2004
:10046000FFF7CEFFFFF7ACFF002008BD00200240E1
:10047000034A1168034B1B780B441360704700BF9D
:100480002C00002000000020014B1868704700BFBE
:100490002C000020002800F0018370B582B00446D3
:1004A000036813F0010F3BD0B54B5B6803F00C03FE
:1004B000042B1ED0B24B5B6803F00C03082B13D047
:1004C0006368B3F5803F68D0002B40F0928003F161
:1004D000804303F504331A6822F480321A601A68E4
:1004E00022F480221A605DE0A54B5B6813F4803F24
:1004F000E6D04FF4003393FAA3F3A14B19684FF4FD
:10050000003393FAA3F3B3FA83F303F01F0301223A
:1005100002FA03F30B4203D06368002B00F0C082A1
:10052000236813F0020F00F0C580954B5B6813F051
:100530000C0F00F09C80924B5B6803F00C03082BBF
:1005400000F08F802369002B00F0F280012292FAE4
:10055000A2F3B3FA83F303F1845303F584139B00EE
:100560001A60FFF791FF0546022393FAA3F3844B29
:100570001968022393FAA3F3B3FA83F303F01F037A
:10058000012202FA03F30B4240F0C380FFF77CFF25
:10059000401B0228E8D903208BE2794A136843F410
:1005A00080331360764AD36A23F00F03A1680B43AC
:1005B000D3626368002B36D0FFF766FF05464FF421
:1005C000003393FAA3F36E4B19684FF4003393FA98
:1005D000A3F3B3FA83F303F01F03012202FA03F338
:1005E0000B429DD1FFF750FF401B6428E7D9032041
:1005F0005FE2B3F5A02F09D0614B1A6822F4803274
:100600001A601A6822F480221A60CBE703F1804353
:10061000A3F53C331A6842F480221A601A6842F447
:1006200080321A60BEE7FFF72FFF05464FF4003314
:1006300093FAA3F3524B19684FF4003393FAA3F3E0
:10064000B3FA83F303F01F03012202FA03F30B4210
:100650003FF466AFFFF718FF401B6428E6D903207C
:1006600027E2474B5B6813F4803F7FF46BAF0223B4
:1006700093FAA3F3424B1968022393FAA3F3B3FA54
:1006800083F303F01F03012202FA03F30B4203D0AA
:100690002369934240F006823948036823F0F80347
:1006A0006169F82292FAA2F2B2FA82F201FA02F237
:1006B00013430360236813F0080F00F08D80A369D3
:1006C000002B61D0012191FAA1F2B2FA82F22D4BF6
:1006D00013449B001960FFF7D7FE0546022393FAE7
:1006E000A3F293FAA3F293FAA3F2254A516A93FA7A
:1006F000A3F3B3FA83F303F01F03012202FA03F317
:100700000B4269D1FFF7C0FE401B0228E6D9032047
:10071000CFE11B48036823F0F8036169F82292FADD
:10072000A2F2B2FA82F201FA02F213430360C1E7C5
:10073000012393FAA3F3B3FA83F303F1845303F58C
:1007400084139B0000221A60FFF79EFE05460223D9
:1007500093FAA3F30A4B1968022393FAA3F3B3FAAB
:1007600083F303F01F03012202FA03F30B42A1D02B
:10077000FFF78AFE401B0228E9D9032099E100BF58
:100780000010024020819010012292FAA2F2B2FAE7
:1007900082F2B74B13449B0000221A60FFF774FEED
:1007A0000546022393FAA3F293FAA3F293FAA3F273
:1007B000B04A516A93FAA3F3B3FA83F303F01F0329
:1007C000012202FA03F30B4206D0FFF75DFE401B45
:1007D0000228E6D903206CE1236813F0040F00F02F
:1007E000A980A44BDB6913F0805F20D1A14BDA69AB
:1007F00042F08052DA61DB6903F080530193019B80
:1008000001259D4B1B6813F4807F12D0E368012BF8
:1008100023D073BB03F1804303F504331A6A22F03B
:1008200001021A621A6A22F004021A621AE0002512
:10083000E7E7914A136843F480731360FFF724FEDF
:1008400006468D4B1B6813F4807FDFD1FFF71CFE3B
:10085000801B6428F5D903202BE1864A136A43F0F4
:1008600001031362E368002B3CD0FFF70DFE064640
:100870002BE0052B09D07F4B1A6A22F001021A6285
:100880001A6A22F004021A62ECE77A4B1A6A42F002
:1008900004021A621A6A42F001021A62E2E7754B18
:1008A000196A022393FAA3F3B3FA83F303F01F0345
:1008B000012202FA03F319423BD1FFF7E5FD801B49
:1008C00041F28833984200F2EF80022393FAA3F2B8
:1008D00093FAA3F3002BE2D1022393FAA3F3654B1F
:1008E000596ADEE7FFF7D0FD064615E0614B196A4D
:1008F000022393FAA3F3B3FA83F303F01F03012255
:1009000002FA03F3194214D0FFF7BEFD801B41F237
:100910008833984200F2CA80022393FAA3F293FA32
:10092000A3F3002BE2D1022393FAA3F3514B596AAC
:10093000DEE7B5BBE369002B00F0BA804D4A526890
:1009400002F00C02082A00F09980022B2FD04FF001
:10095000807393FAA3F3B3FA83F303F1845303F59B
:1009600084139B0000221A60FFF78EFD04464FF0AF
:10097000007393FAA3F33F4B19684FF0007393FA97
:10098000A3F3B3FA83F303F01F03012202FA03F384
:1009900019426BD0FFF778FD001B0228E7D903202E
:1009A00087E0344AD36923F08053D361C2E74FF024
:1009B000807393FAA3F3B3FA83F303F1845303F53B
:1009C00084139B0000221A60FFF75EFD05464FF07E
:1009D000007393FAA3F3274B19684FF0007393FA4F
:1009E000A3F3B3FA83F303F01F03012202FA03F324
:1009F000194206D0FFF748FD401B0228E7D9032023
:100A000057E01C494B6823F47413626A206A02435E
:100A100013434B604FF0807393FAA3F3B3FA83F35D
:100A200003F1845303F584139B0001221A60FFF73E
:100A30002BFD04464FF0007393FAA3F30D4B196896
:100A40004FF0007393FAA3F3B3FA83F303F01F0399
:100A5000012202FA03F3194206D1FFF715FD001B2C
:100A60000228E7D9032024E0002022E0002020E033
:100A7000208190100010024000700040012B1AD01D
:100A8000104B5B6803F48031226A914215D103F464
:100A90007013626A934212D100200AE0012070476D
:100AA000012006E0012004E0032002E0032000E032
:100AB000002002B070BD0120FBE70120F9E7012012
:100AC000F7E700BF00100240164B5B6803F00C0212
:100AD000082A01D01448704703F470114FF47012C3
:100AE00092FAA2F2B2FA82F221FA02F20F49885C7B
:100AF0000C4AD26A02F00F020F2191FAA1F1B1FA69
:100B000081F1CA400A498A5C13F4803F05D0064B44
:100B1000B3FBF2F303FB00F07047064B03FB00F05E
:100B2000704700BF0010024000127A00702D0008CC
:100B3000802D000800093D00002800F0BE8070B53F
:100B40000D460446614B1B6803F007038B420BD232
:100B50005E4A136823F007030B431360136803F026
:100B600007038B4240F0AB80236813F0020F06D0DE
:100B7000574A536823F0F003A1680B43536023687E
:100B800013F0010F5AD06368012B2DD0022B40D0F7
:100B9000022292FAA2F24E4A1068022292FAA2F2BD
:100BA000B2FA82F202F01F02012101FA02F21042AF
:100BB00000F0878046494A6822F0030213434B60E5
:100BC000FFF762FC0646424B5B6803F00C03626869
:100BD000B3EB820F32D0FFF757FC801B41F2883312
:100BE0009842F0D9032067E04FF4003292FAA2F263
:100BF000374A10684FF4003292FAA2F2B2FA82F247
:100C000002F01F02012101FA02F20242D2D10120B8
:100C100052E04FF0007292FAA2F22D4A10684FF0A3
:100C2000007292FAA2F2B2FA82F202F01F020121DD
:100C300001FA02F21042BDD101203DE0234B1B68B6
:100C400003F00703AB420AD9204A136823F00703D5
:100C50002B431360136803F00703AB4233D12368BF
:100C600013F0040F06D01A4A536823F4E063E168D6
:100C70000B435360236813F0080F07D0144A5368DE
:100C800023F46053216943EAC1035360FFF71CFF5B
:100C90000F4B5B6803F0F003F02292FAA2F2B2FA73
:100CA00082F2D3400B4AD35CD8400B4B18600B4BFD
:100CB0001868FFF7A5FB002070BD012070470120D8
:100CC000FAE70120F8E70120F6E700BF0020024024
:100CD00000100240902D00080800002004000020B1
:100CE000F0B583B0002336E0032400E00024B440D4
:100CF0003C4302355D4E46F825405D4C2568D443A3
:100D000025EA02064F6817F4803F01D042EA050643
:100D1000574D2E606D6804EA05064F6817F4003FD2
:100D200001D042EA0506524D6E60AD6804EA050640
:100D30004F6817F4801F01D042EA05064C4DAE60A3
:100D4000ED682C404E6816F4001F01D042EA0504FD
:100D5000474AD46001330A6832FA03F400F0838012
:100D60004FF0010C0CFA03FC1CEA0202F2D04C68B2
:100D7000651E012D03D9112C01D0122C13D18568C9
:100D80005E000324B44025EA0405CC68B4402C433B
:100D90008460446824EA0C0C4C68C4F300149C4042
:100DA00044EA0C044460C6684FEA430C032505FA84
:100DB0000CF5EC4326EA050E8D6805FA0CF545EABC
:100DC0000E05C5604D68022D01D0122D12D1DE082E
:100DD000083650F8267003F007054FEA850E0F25F8
:100DE00005FA0EF527EA05070D6905FA0EF53D43EC
:100DF00040F82650056825404C6804F0030404FAC6
:100E00000CF42C4304604C6814F0805FA2D0194CA1
:100E1000A56945F00105A561A46904F001040194E8
:100E2000019C9D08AE1C114C54F8267003F003047D
:100E3000A6000F24B44027EA0407B0F1904F3FF416
:100E400055AF0D4CA0420AD004F58064A04208D0F2
:100E500004F58064A0423FF447AF052447E701242E
:100E600045E7022443E703B0F0BD00BF00000140A6
:100E700000040140001002400004004803691942C8
:100E800001D001207047002070470AB1816170478E
:100E900081627047436901EA030221EA030141EAE2
:100EA0000241816170470000074AD36823F4E06380
:100EB0001B041B0C000200F4E060034343F0BF631B
:100EC00043F40033D360704700ED00E000B5194BE8
:100ED000DB68C3F30223C3F1070CBCF1040F28BF86
:100EE0004FF0040C03F1040EBEF1060F18D9033BBA
:100EF0004FF0FF3E0EFA0CFC21EA0C0199400EFA6D
:100F000003F322EA0303194300280BDB0901C9B2EA
:100F100000F1604000F5614080F800135DF804FBCB
:100F20000023E5E700F00F000901C9B2024B195494
:100F3000F4E700BF00ED00E014ED00E00138B0F18F
:100F4000807F0BD24FF0E0235861054AF02182F8F0
:100F500023100020986107221A6170470120704712
:100F600000ED00E0034AD2F8883043F47003C2F881
:100F70008830704700ED00E008B5012001F06AFB01
:100F8000FBE7000008B5044A0021044801F0ECFA30
:100F9000034B186008BD00BFAC2D0008790F000896
:100FA0003000002000F1080343604FF0FF32826000
:100FB000C36003610023036070470023036170472F
:100FC00043684B609A688A60516099600861036861
:100FD00001330360704730B40D68B5F1FF3F11D0A5
:100FE00000F108031C465B681A68AA42FAD96368D4
:100FF0004B6099608C606160086103680133036035
:1010000030BC70470469F2E70369416882688A600E
:10101000416851605A68824206D0002202611A6813
:10102000013A1A601868704782685A60F5E710B58F
:10103000044601F0C7FCA26BE36B9A4204D0002483
:1010400001F0E2FC204610BD0124F9E710B504468A
:1010500001F0B8FCA36B23B9012401F0D5FC2046B4
:1010600010BD0024F9E770B504461546866B026C86
:101070005AB903681BB100200136A66370BD4068F1
:1010800000F0CAFF00236360F6E76DB9806801F0E5
:101090003BFE226CA3681344A3606268934219D399
:1010A0002368A3602846E7E7C06801F02DFE226CA4
:1010B0005142E3689B1AE3602268934202D263685C
:1010C0000B44E360022D01D00020D5E726B1013E9C
:1010D0000020D1E72846CFE70020CDE70346026C89
:1010E0006AB110B50846D9681144D9605C68A1425C
:1010F00001D31968D960D96801F006FE10BD7047A8
:1011000038B5054601F05EFC95F8454064B201E053
:10111000013C64B2002C0ADD6B6A43B105F1240086
:1011200000F0D0FE0028F3D000F060FFF0E7FF23CE
:1011300085F8453001F068FC01F044FC95F8444026
:1011400064B201E0013C64B2002C0ADD2B6943B1BA
:1011500005F1100000F0B6FE0028F3D000F046FFC5
:10116000F0E7FF2385F8443001F04EFC38BD38B578
:10117000E0B10D46044601F025FC2368E26B216CCA
:1011800001FB023060600020A063A360013A02FB13
:101190000133E360FF2384F8443084F84530FDB91F
:1011A000236963B901F030FC012038BD4FF05003D2
:1011B00083F31188BFF36F8FBFF34F8FFEE704F106
:1011C000100000F07FFE0028ECD04FF0E0234FF03D
:1011D0008052C3F8042DBFF34F8FBFF36F8FE1E749
:1011E00004F11000FFF7DEFE04F12400FFF7DAFE41
:1011F000D8E738B51D46049C0B4649B92460E06326
:10120000236401212046FFF7B2FF84F84C5038BD1B
:101210002260F4E740B94FF0500383F31188BFF325
:101220006F8FBFF34F8FFEE710B584B01C46844626
:1012300053B192B189B94FF0500383F31188BFF3D2
:101240006F8FBFF34F8FFEE74FF0500383F311888A
:10125000BFF36F8FBFF34F8FFEE76AB15023039345
:10126000039B502B13D04FF0500383F31188BFF32F
:101270006F8FBFF34F8FFEE70029EFD04FF0500381
:1012800083F31188BFF36F8FBFF34F8FFEE7012306
:1012900084F8463000949DF818306046FFF7A9FFA7
:1012A000204604B010BDF0B585B0019288B10F465C
:1012B0001D460446B1B1022D20D1E36B012B1DD098
:1012C0004FF0500383F31188BFF36F8FBFF34F8F3D
:1012D000FEE74FF0500383F31188BFF36F8FBFF326
:1012E0004F8FFEE7036C002BE5D04FF0500383F3E4
:1012F0001188BFF36F8FBFF34F8FFEE700F07CFEC6
:10130000064658B9019B002B48D04FF0500383F399
:101310001188BFF36F8FBFF34F8FFEE700263DE0CC
:101320002A4639462046FFF79EFE636A7BB948B1DC
:101330004FF0E0234FF08052C3F8042DBFF34F8FDE
:10134000BFF36F8F01F060FB012005B0F0BD04F129
:10135000240000F0B7FD0028F4D04FF0E0234FF058
:101360008052C3F8042DBFF34F8FBFF36F8FE9E7AF
:1013700001F04AFB0020E8E702A800F0E9FD0126A1
:1013800019E0002384F8443021E0002384F845303C
:1013900023E02046FFF7B4FE00F074FC01F012FBDE
:1013A000A26BE36B9A42BBD3022DB9D0019B002BF9
:1013B000DED0002EE0D001F027FB00F0C9FB01F0E9
:1013C00001FB94F8442052B2B2F1FF3FD9D094F817
:1013D000452052B2B2F1FF3FD7D001F015FB01A971
:1013E00002A800F0C1FDD8B92046FFF720FE002872
:1013F000CFD0019904F1100000F030FD2046FFF736
:101400007FFE00F03FFC0028C8D14FF0E0234FF0F2
:101410008052C3F8042DBFF34F8FBFF36F8FBDE72A
:101420002046FFF76DFE00F02DFC00208DE72DE932
:10143000F84390B10F4616461C460546B1B1022C42
:1014400020D1EB6B012B1DD04FF0500383F311889B
:10145000BFF36F8FBFF34F8FFEE74FF0500383F35F
:101460001188BFF36F8FBFF34F8FFEE7036C002B24
:10147000E5D04FF0500383F31188BFF36F8FBFF3B4
:101480004F8FFEE701F0C4FBEFF311894FF05003DB
:1014900083F31188BFF36F8FBFF34F8FAA6BEB6B92
:1014A0009A4206D3022C04D0002089F31188BDE8AB
:1014B000F88395F845804FFA88F822463946284641
:1014C000FFF7D1FDB8F1FF3F06D008F101035BB291
:1014D00085F845300120E8E76B6A0BB90120E4E7A5
:1014E00005F1240000F0EEFC18B126B101203060B7
:1014F000DBE70120D9E70120D7E7F0B585B00192FD
:1015000090B10F460446C1B100F076FD064600BB1F
:10151000019B002B5ED04FF0500383F31188BFF383
:101520006F8FBFF34F8FFEE74FF0500383F31188A7
:10153000BFF36F8FBFF34F8FFEE7036C002BE3D039
:101540004FF0500383F31188BFF36F8FBFF34F8FBA
:10155000FEE700263EE039462046FFF7BFFD013D8D
:10156000A563236923B901F04FFA012005B0F0BD4E
:1015700004F1100000F0A6FC0028F4D04FF0E023A6
:101580004FF08052C3F8042DBFF34F8FBFF36F8F1E
:10159000E9E701F039FA0020E8E702A800F0D8FCFA
:1015A000012621E0002384F8443029E0002384F858
:1015B00045302BE02046FFF7A3FD00F063FB09E078
:1015C0002046FFF79DFD00F05DFB2046FFF73EFD46
:1015D00000283FD101F0F6F9A56B002DBBD1019B8E
:1015E000002BD6D0002ED8D001F00EFA00F0B0FAC1
:1015F00001F0E8F994F844305BB2B3F1FF3FD1D089
:1016000094F845305BB2B3F1FF3FCFD001F0FCF965
:1016100001A902A800F0A8FC0028D1D12046FFF7BC
:1016200015FD0028C6D0019904F1240000F016FC35
:101630002046FFF765FD00F025FB0028CAD14FF0DA
:10164000E0234FF08052C3F8042DBFF34F8FBFF358
:101650006F8FBFE7002089E70023072B0CD8074ACC
:1016600052F833200AB10133F7E7044A42F8331045
:1016700002EBC30358607047704700BF340000207E
:1016800070B504460D46164601F09CF994F84430B6
:101690005BB2B3F1FF3F0DD094F845305BB2B3F1CC
:1016A000FF3F0BD001F0B0F9A36B5BB12046FFF711
:1016B00027FD70BD002384F84430EDE7002384F853
:1016C0004530EFE73246294604F1240000F0DEFB06
:1016D000ECE70000084B1B681B6823B9074B4FF071
:1016E000FF321A607047044B1B68DB68DB685A687E
:1016F000024B1A60704700BF7800002024050020CC
:101700002DE9F04780460D4617469946089EDDF8BC
:1017100024A00A9C9200A521206B01F003FB236BFF
:1017200007F18042013A03EB820727F007074FF0E9
:10173000000CBCF10F0F0BD815F80C2004EB0C03B8
:1017400083F8342015F80C3013B10CF1010CF0E7DC
:10175000002384F84330372E00D93726E662E6644A
:1017600000252565201DFFF728FC04F11800FFF770
:1017700024FC2461C6F13806A6616462656584F8BC
:1017800058504A464146384601F0F0F82060BAF118
:10179000000F01D0CAF80040BDE8F08738B500243A
:1017A00007E004EB840293000E481844FFF7FAFBAD
:1017B0000134372CF5D90C4D2846FFF7F3FB0B4CC1
:1017C0002046FFF7EFFB0A48FFF7ECFB0948FFF75D
:1017D000E9FB0948FFF7E6FB084B1D60084B1C605E
:1017E00038BD00BF80000020F80400200C05002058
:1017F0002C0500205805002044050020780000201A
:101800007C00002010B5044601F0DCF8224A136881
:1018100001331360214B1B685BB1214B1B686BB913
:101820001E4B1B68DA6AE36A9A4207D81B4B1C609E
:1018300004E01A4B1C601368012B29D0194A136865
:10184000013313606364E06A174B1B68984201D947
:10185000154B186000EB8000211D144B03EB80003A
:10186000FFF7AEFB01F0D0F80D4B1B687BB10B4BC3
:101870001B68DA6AE36A9A4209D24FF0E0234FF01C
:101880008052C3F8042DBFF34F8FBFF36F8F10BD8D
:10189000FFF784FFD2E700BFE004002074000020BF
:1018A00040050020F0040020F40400208000002007
:1018B00010B5044690F8593063B1012B11D0022BBA
:1018C0000ED04FF0500383F31188BFF36F8FBFF337
:1018D0004F8FFEE7006B00F0D3FF204600F0D0FFF3
:1018E00010BD00F0CDFFFBE70F4B1B68D3B110B567
:1018F00001F068F80D4BDB68DC68201DFFF784FB06
:101900000B4A1368013B1360074A1368013B1360DD
:1019100001F07AF82046FFF7CBFF034B1B68002B42
:10192000E6D110BD704700BFE40400205805002038
:10193000E004002008B5FFF7D7FF074B1B68012B19
:10194000F9D94FF0E0234FF08052C3F8042DBFF3D4
:101950004F8FBFF36F8FEEE78000002070B5044615
:101960000D46174B1E68174B18680430FFF74CFBE9
:10197000B4F1FF3F0DD03444124B1B685C60A642AB
:1019800010D9114B18680F4B19680431FFF723FB6E
:1019900070BD002DEFD00B4B196804310B48FFF7D9
:1019A0000FFBF5E70A4B1868064B19680431FFF77F
:1019B00012FB084B1B68A342EAD9064B1C60E7E701
:1019C0006C050020740000207C00002044050020ED
:1019D000780000202405002030B587B00B9C7CB136
:1019E0000C9DB5B15C250495049D5C2D1AD04FF07B
:1019F000500383F31188BFF36F8FBFF34F8FFEE760
:101A00004FF0500383F31188BFF36F8FBFF34F8FF5
:101A1000FEE74FF0500383F31188BFF36F8FBFF3DE
:101A20004F8FFEE70C9D2C63022485F8594000245B
:101A30000394029505AC01940A9C0094FFF760FEA4
:101A40000C98FFF7DFFE059807B030BD2DE9F04395
:101A500085B00746884614461E46900000F098FE62
:101A600000B381465C2000F093FE0546B0B1C0F89B
:101A70003090E5B1002385F85930039302950D9B12
:101A800001930C9B00933346224641463846FFF7AC
:101A900037FE2846FFF7B6FE012005E0484600F075
:101AA000EFFEE6E74FF0FF3005B0BDE8F0834FF002
:101AB000FF30F9E710B588B000240594069407AA12
:101AC00006A905A800F0E8FD059B0293069B01937B
:101AD00000942346079A18491848FFF77DFF184BD2
:101AE000186040B100F04CFB012806D0B0F1FF3F78
:101AF00018D008B010BD0020F6E74FF0500383F374
:101B00001188BFF36F8FBFF34F8F0E4B4FF0FF3233
:101B10001A600D4B01221A600C4B00221A6000F073
:101B2000EBFFE6E74FF0500383F31188BFF36F8FAD
:101B3000BFF34F8FFEE700BFD02D00083519000816
:101B40002005002024050020400500206C05002011
:101B5000024A136801331360704700BFEC04002091
:101B6000014B1868704700BF6C050020F8B53A4B70
:101B70001B68002B64D1394B1D6801351D60C5B948
:101B8000374B1B681B6843B14FF0500383F3118838
:101B9000BFF36F8FBFF34F8FFEE7314A1168314BB0
:101BA000186810601960304A136801331360FFF73A
:101BB00091FD2E4B1B68AB4238D900272C4B1B687C
:101BC000DB6A03EB83039A002A4B9B58012B3CD919
:101BD00001273AE00127224B1B681B6843B3204BC7
:101BE0001B68DB68DC6863689D4226D3261D30468F
:101BF000FFF70AFAA36A1BB104F11800FFF704FA11
:101C0000E36A1D4A1268934201D91B4A136003EB31
:101C100083039A00314617481044FFF7D1F9E26A6E
:101C2000134B1B68DB6A9A42D4D2D4E70027D2E771
:101C30000E4B4FF0FF321A60C0E70C4A1360BDE74D
:101C40000E4A13680133136000270D4B1B6803B164
:101C500001273846F8BD00BFEC0400206C050020C9
:101C6000780000207C0000202805002024050020AA
:101C70007400002080000020F4040020E80400200C
:101C80007005002038B5354B1B6843B94FF0500341
:101C900083F31188BFF36F8FBFF34F8FFEE700F020
:101CA00091FE2E4B1A68013A1A601B68002B4FD127
:101CB0002B4B1B680BB900244BE00024294B1B68FD
:101CC0001BB3284BDB68DC6804F11800FFF79CF9B4
:101CD000251D2846FFF798F9E06A234B1B689842B8
:101CE00001D9214B186000EB800029461F4B03EB04
:101CF0008000FFF765F9E26A1D4B1B68DB6A9A42B8
:101D0000DCD31C4B01221A60D8E70CB1FFF7E2FCD0
:101D1000194B1C6884B9174B1C68D4B14FF0E023F1
:101D20004FF08052C3F8042DBFF34F8FBFF36F8F76
:101D300001240EE0013C07D0FFF718FF0028F9D07E
:101D40000C4B01221A60F5E70B4B00221A60E2E708
:101D5000002400F059FE204638BD00BFEC040020EE
:101D6000E00400202C050020F40400208000002066
:101D70007400002070050020E804002010B5A8B110
:101D80000446104B1B6843B14FF0500383F3118896
:101D9000BFF36F8FBFF34F8FFEE7FFF7D9FE002130
:101DA0002046FFF7DBFDFFF76DFF48B94FF0E0235A
:101DB0004FF08052C3F8042DBFF34F8FBFF36F8FE6
:101DC00010BD00BFEC0400201F4B1B681BB11F4B54
:101DD00001221A6070471D4B00221A601C4B1B68C1
:101DE00003EB83018A001B498A585AB90BB1013BA6
:101DF000F6E74FF0500383F31188BFF36F8FBFF303
:101E00004F8FFEE703EB830082000A44506840686E
:101E1000506003EB830C4FEA8C0208321144884275
:101E20000BD003EB830291000A4A0A445268D1683E
:101E3000094A1160064A1360704740686246910083
:101E4000044A0A445060ECE7EC04002070050020CE
:101E5000F4040020800000207400002058B110B568
:101E60000C46094A11681831FFF7B5F801212046E0
:101E7000FFF774FD10BD4FF0500383F31188BFF3DB
:101E80006F8FBFF34F8FFEE77400002038B570B13D
:101E90000D4614460A4A11681831FFF791F80CB143
:101EA0004FF0FF3521462846FFF758FD38BD4FF06B
:101EB000500383F31188BFF36F8FBFF34F8FFEE79B
:101EC0007400002038B5C368DC6824B304F1180539
:101ED0002846FFF799F8184B1B682BBB251D284691
:101EE000FFF792F8E06A154B1B68984201D9134B33
:101EF000186000EB80002946114B03EB8000FFF7D0
:101F00005FF8E26A0F4B1B68DB6A9A4211D9012025
:101F10000D4B186038BD4FF0500383F31188BFF3A9
:101F20006F8FBFF34F8FFEE729460848FFF748F849
:101F3000E7E70020EEE700BFEC040020F4040020F7
:101F40008000002074000020700500202C05002077
:101F5000034B1B680360034B1B684360704700BF63
:101F6000280500206C050020F8B5C8B10C460546D0
:101F7000F9B100F027FD1B4B19686B68C81A22687D
:101F8000B2F1FF3F26D0184E36682F68B74201D015
:101F90008B4224D9824215D80023236001241AE001
:101FA0004FF0500383F31188BFF36F8FBFF34F8F50
:101FB000FEE74FF0500383F31188BFF36F8FBFF339
:101FC0004F8FFEE75B1A134423602846FFF7C0FFDC
:101FD000002400E0002400F017FD2046F8BD012495
:101FE000F9E700BF6C05002028050020014B012205
:101FF0001A60704770050020054B1B6833B1054B14
:102000001B680BB100207047022070470120704709
:1020100040050020EC04002000283BD038B50446E1
:102020001E4B1B68834208D04FF0500383F3118886
:10203000BFF36F8FBFF34F8FFEE7036D43B94FF0D0
:10204000500383F31188BFF36F8FBFF34F8FFEE709
:10205000013B0365C16AC26C91421DD00BB10020E7
:1020600038BD051D2846FEF7CFFFE06CE062C0F1E9
:102070003803A3610A4B1B68984201D9084B1860CA
:1020800000EB80002946074B03EB8000FEF798FF2A
:102090000120E5E7002070470020E1E77400002000
:1020A000F404002080000020064B1A681368B3FA7D
:1020B00083F35B09036013B9D36818687047002085
:1020C000704700BF7405002008B54160006191426F
:1020D0000CD8D21A83699A4201D3012008BD011D90
:1020E000094B1868FEF777FF0020F7E79A4201D204
:1020F000994206D2011D054B1868FEF76CFF0020BF
:10210000ECE70120EAE700BF780500207405002015
:1021100030B583B000F056FC114B1B681BB100F0CA
:1021200073FC03B030BD0F4D2846FEF73BFF0E4C4D
:102130002046FEF737FF0D4B1D600D4B1C60002342
:1021400000930C4B0C4A10210A20FFF763F8044B54
:1021500018600028E3D00949FFF77EFADFE700BFE7
:10216000980600201C060020300600207405002080
:1021700078050020480600207C050020D82D0008A6
:1021800010B588B0FFF7C4FF124B1B68CBB1002419
:102190000594069407AA06A905A800F089FA059BEC
:1021A0000293069B0193022300932346079A0A4950
:1021B0000A48FFF711FC0A4B186010B1012008B063
:1021C00010BD4FF0500383F31188BFF36F8FBFF33F
:1021D0004F8FFEE798060020E02D0008C12400087C
:1021E0009C060020B8B19C4603461848006858B3C6
:1021F00000B585B000910192029305291CDCFFF720
:10220000FBFE022810D000231A4669460F480068DA
:10221000FFF749F815E04FF0500383F31188BFF33F
:102220006F8FBFF34F8FFEE70023069A694607487A
:102230000068FFF738F804E0002362466946FFF7BC
:10224000F6F805B05DF804FB002070479806002002
:1022500070B582B01A4B1B681A6852B3DB681E68EF
:10226000DC68251D2846FEF7CFFE636A20469847A6
:10227000E369012BEED1A36933449E4207D2636028
:10228000246129460E4B1868FEF7A5FEE2E70021FF
:1022900000910B4632462046FFF7A4FF0028D9D113
:1022A0004FF0500383F31188BFF36F8FBFF34F8F4D
:1022B000FEE7044A106802490860136002B070BD6E
:1022C000740500207805002038B50546FFF748FC66
:1022D0000446074B1B68834205D800232B60044B40
:1022E0001C60204638BDFFF7B3FF01232B60F6E7E3
:1022F0004406002070B582B006460D4614490968B0
:10230000C968CC68201DFEF77FFEE169012904D071
:10231000636A2046984702B070BDA16933462A46D9
:1023200031442046FFF7D0FE0028F1D00021009173
:102330000B4632462046FFF755FF0028E8D14FF004
:10234000500383F31188BFF36F8FBFF34F8FFEE706
:102350007405002070B582B006460C46FFF7F8FB06
:1023600001A8FFF7B1FF019B2BBB05460CB9B0429A
:102370001AD22CB1124B1B681C68B4FA84F464099D
:102380002246711B0F4B1868FFF77AF9FFF77AFCAA
:1023900098B94FF0E0234FF08052C3F8042DBFF3FB
:1023A0004F8FBFF36F8F08E0FFF76CFC2946304674
:1023B000FFF7A0FF01E0FFF765FC02B070BD00BFB2
:1023C000780500209806002010B588B002E0049B34
:1023D000002B0FDA002204A9384B1868FFF78DF89C
:1023E000002869D0049B002BF1DA07990698059B19
:1023F0009847ECE7069C636913B1201DFEF704FEC5
:1024000003A8FFF761FF049B092BE3D801A252F850
:1024100023F000BF3D2400083D2400083D240008AF
:10242000D523000883240008A92400083D240008BF
:102430003D240008D523000883240008059BA169DA
:10244000024619442046FFF73FFE0028C2D0636AC7
:1024500020469847E369012BBCD1A2690021009175
:102460000B46059802442046FFF7BCFE0028B1D178
:102470004FF0500383F31188BFF36F8FBFF34F8F7B
:10248000FEE70599A16131B10346024601442046A9
:10249000FFF71AFE9EE74FF0500383F31188BFF356
:1024A0006F8FBFF34F8FFEE794F82C30002B91D144
:1024B000204600F0E5F98DE708B010BD9806002031
:1024C00000B583B001A8FFF7EFFD0199FFF742FFC8
:1024D000FFF77AFFF6E70000EFF3058393B9EFF318
:1024E000108393B90C4B1868022804D080B90A4BAA
:1024F00001221A607047EFF31183002BF6D06FF0C2
:10250000050070476FF0050070476FF005007047D9
:102510004FF0FF30704700BFFC08002008B5EFF314
:102520000583B3B9EFF31083B3B90E4B1B68022BCD
:1025300008D0012B13D10B4B02221A60FFF7BAFA15
:10254000002008BDEFF31182002AF2D06FF00500E1
:10255000F7E76FF00500F4E76FF00500F1E74FF0E3
:10256000FF30EEE7FC080020F0B587B000240494AB
:10257000EFF30584002C43D1EFF31083002B3FD100
:10258000334B1B68022B16D0002839D000238DF85E
:10259000173062B3156895B1936903B918235C1EAF
:1025A000372C51D8546814F0010F4FD156694EB1F1
:1025B0004FEA960C08E0EFF311830BBBE4E70DF153
:1025C0001705E9E74FF0800C94682CB1D7685B2FB2
:1025D00002D9176907B1B6B914B14FF0FF340CE056
:1025E000D46894B914699CB14FF0FF3405E000241D
:1025F00018234FF0800C0DF11705012C0AD0ACB157
:10260000049807B0F0BD0124F7E74FF0FF34F4E77A
:102610000024F2E7146992680292019400930B4639
:1026200062462946FFF7D8F90490E9E704AA019227
:1026300000930B461FFA8CF22946FFF707FA012890
:10264000DED000230493DBE70020DAE70020D8E7A0
:10265000FC08002008B5EFF30583A3B9EFF310835E
:10266000A3B90C4B1B68022B02D040B9002008BD57
:10267000EFF31183002BF8D06FF00500F7E7FFF7B9
:102680007DFB0020F3E76FF00500F0E76FF0050039
:10269000EDE700BFFC080020034B0360034B0B6019
:1026A00080231360704700BFA0080020A006002010
:1026B000034B0360034B0B604FF480731360704750
:1026C000000D002000090020124A12F0070F1ED052
:1026D000D11D21F00701C1F5406313440A460E489D
:1026E0000260002141601344083B23F007030B48BC
:1026F000036059601960991A51601360084B1960A2
:10270000084B1960084B4FF000421A6070474FF4B5
:102710004063E4E7600D00206C1900205C0D002090
:10272000681900206419002060190020164B1A4611
:102730001B688342FBD3516802EB010C844509D02E
:10274000416800EB010C634509D00360904219D049
:10275000106070474068014451601046F0E710B4C3
:102760000A4C2468A3420BD05B681944416013688B
:102770001B680360904200D010605DF8044B704706
:102780000460F7E7704700BF6C1900205C0D002063
:1027900070B50546FFF7DCF9344B1B68A3B1344B29
:1027A0001B681D424AD135B1083515F0070F02D01C
:1027B00025F007050835002D42D02E4B1B68AB4293
:1027C0004DD32D4A146804E0FFF77EFFE7E7224669
:1027D0001C466368AB4202D22368002BF7D1234B1F
:1027E0001B68A3423DD016680836236813606368EF
:1027F0005B1B102B10D9601910F0070F08D04FF099
:10280000500383F31188BFF36F8FBFF34F8FFEE741
:1028100043606560FFF78AFF626816490B689B1A80
:102820000B60164909688B4201D214490B60104BAA
:102830001B68134363600023236002E0002600E06E
:102840000026FFF71FFA16F0070F0CD04FF05003C9
:1028500083F31188BFF36F8FBFF34F8FFEE700261E
:10286000EFE70026EDE7304670BD00BF5C0D0020AD
:1028700060190020641900206C19002068190020DC
:1028800080B338B50446A0F1080550F8043C164A58
:102890001268134208D14FF0500383F31188BFF33D
:1028A0006F8FBFF34F8FFEE750F8081C41B14FF018
:1028B000500383F31188BFF36F8FBFF34F8FFEE791
:1028C00023EA020340F8043CFFF742F954F8041CE1
:1028D000064A13680B4413602846FFF727FFFFF7EB
:1028E000D1F938BD704700BF60190020641900207D
:1028F00082B0002301930D4B1B68B3F1FF3F08D05A
:102900004FF0500383F31188BFF36F8FBFF34F8FE6
:10291000FEE74FF0500383F31188BFF36F8FBFF3CF
:102920004F8F019B002BFCD002B070470C000020A1
:1029300008480068006880F308884FF0000080F3C2
:10294000148862B661B6BFF34F8FBFF36F8F00DF9D
:1029500000BF000008ED00E0DFF80C00016841F462
:10296000700101607047000088ED00E04FF0807357
:1029700040F8043C21F0010140F8081C054B40F8E8
:102980000C3C40F8202C6FF0020340F8243C443803
:10299000704700BFF12800080000000000000000A0
:1029A000074B19680868B0E8F04F80F30988BFF357
:1029B0006F8F4FF0000080F311887047AFF30080F5
:1029C000740000204FF0500383F31188BFF36F8F22
:1029D000BFF34F8F0B4A136801331360012B00D0F4
:1029E00070474FF0E023D3F8043D13F0FF0FF7D00A
:1029F0004FF0500383F31188BFF36F8FBFF34F8FF6
:102A0000FEE700BF0C000020094B1B6843B94FF0E4
:102A1000500383F31188BFF36F8FBFF34F8FFEE72F
:102A2000013B034A13600BB983F31188704700BF61
:102A30000C0000200000000000000000000000006A
:102A4000EFF30980BFF36F8F154B1A681EF0100F5C
:102A500008BF20ED108A20E9F04F10602DE9090031
:102A60004FF0500080F31188BFF34F8FBFF36F8F8B
:102A7000FFF7AAF94FF0000080F3118809BC19682C
:102A80000868B0E8F04F1EF0100F08BFB0EC108AD5
:102A900080F30988BFF36F8F704700BFAFF30080EA
:102AA0007400002008B54FF0500383F31188BFF382
:102AB0006F8FBFF34F8FFFF759F828B14FF0E02326
:102AC0004FF08052C3F8042D002383F3118808BD12
:102AD0004FF0E022002313619361054B1B68054909
:102AE000A1FB03139B09013B53610723136170474B
:102AF00008000020D34D62104FF0E023D3F8002DE2
:102B00003D4B9A421CD04FF0E023D3F8002D3B4BB5
:102B10009A421ED030B583B0394B1A78D2B20192A6
:102B2000FF221A701B78DBB28DF803309DF803305A
:102B300003F05003334A1370334B07221A601BE033
:102B40004FF0500383F31188BFF36F8FBFF34F8FA4
:102B5000FEE74FF0500383F31188BFF36F8FBFF38D
:102B60004F8FFEE7284A1368013B13609DF803303E
:102B70005B00DBB28DF803309DF8033013F0800F5B
:102B8000F0D1214B1B68032B08D04FF0500383F387
:102B90001188BFF36F8FBFF34F8FFEE71B021A4AF6
:102BA000136003F4E0631360019BDBB2144A1370FB
:102BB0004FF0E024D4F8203D43F47003C4F8203DE6
:102BC000D4F8203D43F07043C4F8203DFFF780FF68
:102BD00000250E4B1D60FFF7BFFED4F8343F43F0D5
:102BE0004043C4F8343FFFF7A3FEFFF7EDF8FFF7CB
:102BF0007FFE284603B030BD71C20F4170C20F4145
:102C000000E400E074190020781900200C00002076
:102C1000EFF305830F2B0FD9114A9B5CDBB2114AEE
:102C200012789A4208D94FF0500383F31188BFF30A
:102C30006F8FBFF34F8FFEE74FF0E023D3F80C3DCB
:102C400003F4E063084A1268934208D94FF0500336
:102C500083F31188BFF36F8FBFF34F8FFEE7704789
:102C6000F0E300E07419002078190020DFF834D078
:102C70000D480E490E4A002302E0D458C4500433D4
:102C8000C4188C42F9D30B4A0B4C002301E01360AB
:102C90000432A242FBD3FEF765F900F011F8FDF70C
:102CA0000DFBFEE700300020000000201000002097
:102CB000F02D0008100000207C190020FEE7000025
:102CC00070B50D4D0D4C641BA4100026A64209D111
:102CD0000B4D0C4C00F02EF8641BA4100026A642ED
:102CE00005D170BD55F8043B98470136EEE755F81D
:102CF000043B98470136F2E7E82D0008E82D00086C
:102D0000E82D0008EC2D00080A44914200F1FF3341
:102D100000D1704710B511F8014B03F8014F9142F3
:102D2000F9D110BD02440346934200D1704703F825
:102D3000011BF9E7F8B500BFF8BC08BC9E46704718
:0C2D4000F8B500BFF8BC08BC9E46704708
:102D4C004C45445461736B31000000004C454454B5
:102D5C0061736B32000000004C45445461736B335B
:102D6C000000000002030405060708090A0B0C0DFD
:102D7C000E0F10100102030405060708090A0B0CBC
:102D8C000D0E0F10000000000000000001020304F3
:102D9C000607080964656661756C745461736B0091
:102DAC00A02D000800000000000000000000000042
:102DBC0000000000000200001800000000000000ED
:102DCC000000000049444C4500000000546D725155
:0C2DDC0000000000546D7220537663006C
:042DE800B501000829
:042DEC009101000849
:102DF000010000001000000000127A00AAAAAAAA8E
:0400000508002C6D56
:00000001FF
